{
  "contractName": "PushStudy",
  "abi": [
    {
      "constant": true,
      "inputs": [],
      "name": "owner",
      "outputs": [
        {
          "name": "",
          "type": "address"
        }
      ],
      "payable": false,
      "stateMutability": "view",
      "type": "function"
    },
    {
      "inputs": [],
      "payable": true,
      "stateMutability": "payable",
      "type": "constructor"
    },
    {
      "constant": false,
      "inputs": [],
      "name": "signup",
      "outputs": [],
      "payable": true,
      "stateMutability": "payable",
      "type": "function"
    }
  ],
  "bytecode": "0x6080604052670de0b6b3a7640000600155336000806101000a81548173ffffffffffffffffffffffffffffffffffffffff021916908373ffffffffffffffffffffffffffffffffffffffff1602179055506101968061005f6000396000f30060806040526004361061004c576000357c0100000000000000000000000000000000000000000000000000000000900463ffffffff1680638da5cb5b14610051578063b7bc0f73146100a8575b600080fd5b34801561005d57600080fd5b506100666100b2565b604051808273ffffffffffffffffffffffffffffffffffffffff1673ffffffffffffffffffffffffffffffffffffffff16815260200191505060405180910390f35b6100b06100d7565b005b6000809054906101000a900473ffffffffffffffffffffffffffffffffffffffff1681565b6001543373ffffffffffffffffffffffffffffffffffffffff163110151515610168576040517f08c379a000000000000000000000000000000000000000000000000000000000815260040180806020018281038252600c8152602001807fe4bd99e9a29de4b88de8b6b3000000000000000000000000000000000000000081525060200191505060405180910390fd5b5600a165627a7a723058206e6e2012cc3091d5d44e4528ef98936ae361992a2f543b95c55c436857a5462e0029",
  "source": "pragma solidity ^0.4.2;\r\n\r\ncontract PushStudy{\r\n\r\n    address public owner;\r\n    \r\n    uint fee = 1 ether;\r\n\r\n    function signup() public payable{\r\n        require(msg.sender.balance >= fee,\"余额不足\");\r\n    }\r\n\r\n    function PushStudy() public payable{\r\n        owner = msg.sender;\r\n    }\r\n\r\n\r\n}",
  "sourcePath": "D:\\BitKiller\\contracts\\PushStudy.sol",
  "compiler": {
    "name": "solc",
    "version": "0.4.24+commit.e67f0147.Emscripten.clang"
  },
  "schemaVersion": "2.0.1",
  "updatedAt": "2018-10-27T12:48:21.732Z"
}