{
  "contractName": "PushStudy",
  "abi": [
    {
      "constant": true,
      "inputs": [
        {
          "name": "",
          "type": "address"
        }
      ],
      "name": "balances",
      "outputs": [
        {
          "name": "",
          "type": "uint256"
        }
      ],
      "payable": false,
      "stateMutability": "view",
      "type": "function"
    },
    {
      "constant": true,
      "inputs": [],
      "name": "candidatesCount",
      "outputs": [
        {
          "name": "",
          "type": "uint256"
        }
      ],
      "payable": false,
      "stateMutability": "view",
      "type": "function"
    },
    {
      "constant": true,
      "inputs": [
        {
          "name": "",
          "type": "uint256"
        }
      ],
      "name": "candidates",
      "outputs": [
        {
          "name": "id",
          "type": "uint256"
        },
        {
          "name": "name",
          "type": "string"
        },
        {
          "name": "voteCount",
          "type": "uint256"
        }
      ],
      "payable": false,
      "stateMutability": "view",
      "type": "function"
    },
    {
      "constant": true,
      "inputs": [],
      "name": "owner",
      "outputs": [
        {
          "name": "",
          "type": "address"
        }
      ],
      "payable": false,
      "stateMutability": "view",
      "type": "function"
    },
    {
      "constant": true,
      "inputs": [
        {
          "name": "",
          "type": "address"
        }
      ],
      "name": "voters",
      "outputs": [
        {
          "name": "",
          "type": "bool"
        }
      ],
      "payable": false,
      "stateMutability": "view",
      "type": "function"
    },
    {
      "inputs": [],
      "payable": true,
      "stateMutability": "payable",
      "type": "constructor"
    },
    {
      "anonymous": false,
      "inputs": [
        {
          "indexed": true,
          "name": "_candidateId",
          "type": "uint256"
        }
      ],
      "name": "votedEvent",
      "type": "event"
    },
    {
      "constant": false,
      "inputs": [],
      "name": "signup",
      "outputs": [],
      "payable": true,
      "stateMutability": "payable",
      "type": "function"
    },
    {
      "constant": false,
      "inputs": [
        {
          "name": "_candidateId",
          "type": "uint256"
        }
      ],
      "name": "vote",
      "outputs": [],
      "payable": false,
      "stateMutability": "nonpayable",
      "type": "function"
    }
  ],
  "bytecode": "0x6080604052670de0b6b3a7640000600455336000806101000a81548173ffffffffffffffffffffffffffffffffffffffff021916908373ffffffffffffffffffffffffffffffffffffffff1602179055506106eb8061005f6000396000f300608060405260043610610083576000357c0100000000000000000000000000000000000000000000000000000000900463ffffffff1680630121b93f1461008857806327e235e3146100b55780632d35a8a21461010c5780633477ee2e146101375780638da5cb5b146101eb578063a3ec138d14610242578063b7bc0f731461029d575b600080fd5b34801561009457600080fd5b506100b3600480360381019080803590602001909291905050506102a7565b005b3480156100c157600080fd5b506100f6600480360381019080803573ffffffffffffffffffffffffffffffffffffffff16906020019092919050505061049c565b6040518082815260200191505060405180910390f35b34801561011857600080fd5b506101216104b4565b6040518082815260200191505060405180910390f35b34801561014357600080fd5b50610162600480360381019080803590602001909291905050506104ba565b6040518084815260200180602001838152602001828103825284818151815260200191508051906020019080838360005b838110156101ae578082015181840152602081019050610193565b50505050905090810190601f1680156101db5780820380516001836020036101000a031916815260200191505b5094505050505060405180910390f35b3480156101f757600080fd5b5061020061057c565b604051808273ffffffffffffffffffffffffffffffffffffffff1673ffffffffffffffffffffffffffffffffffffffff16815260200191505060405180910390f35b34801561024e57600080fd5b50610283600480360381019080803573ffffffffffffffffffffffffffffffffffffffff1690602001909291905050506105a1565b604051808215151515815260200191505060405180910390f35b6102a56105c1565b005b600160003373ffffffffffffffffffffffffffffffffffffffff1673ffffffffffffffffffffffffffffffffffffffff16815260200190815260200160002060009054906101000a900460ff16151515610369576040517f08c379a00000000000000000000000000000000000000000000000000000000081526004018080602001828103825260138152602001807f54686520766f7465722068617320766f7465640000000000000000000000000081525060200191505060405180910390fd5b60008111801561037b57506005548111155b15156103ef576040517f08c379a00000000000000000000000000000000000000000000000000000000081526004018080602001828103825260118152602001807f496e76616c69642063616e64696461746500000000000000000000000000000081525060200191505060405180910390fd5b60018060003373ffffffffffffffffffffffffffffffffffffffff1673ffffffffffffffffffffffffffffffffffffffff16815260200190815260200160002060006101000a81548160ff0219169083151502179055506002600082815260200190815260200160002060020160008154809291906001019190505550807ffff3c900d938d21d0990d786e819f29b8d05c1ef587b462b939609625b684b1660405160405180910390a250565b60036020528060005260406000206000915090505481565b60055481565b6002602052806000526040600020600091509050806000015490806001018054600181600116156101000203166002900480601f01602080910402602001604051908101604052809291908181526020018280546001816001161561010002031660029004801561056c5780601f106105415761010080835404028352916020019161056c565b820191906000526020600020905b81548152906001019060200180831161054f57829003601f168201915b5050505050908060020154905083565b6000809054906101000a900473ffffffffffffffffffffffffffffffffffffffff1681565b60016020528060005260406000206000915054906101000a900460ff1681565b6004543373ffffffffffffffffffffffffffffffffffffffff163110151515610652576040517f08c379a000000000000000000000000000000000000000000000000000000000815260040180806020018281038252600c8152602001807fe4bd99e9a29de4b88de8b6b3000000000000000000000000000000000000000081525060200191505060405180910390fd5b6004543373ffffffffffffffffffffffffffffffffffffffff163111156106bd573373ffffffffffffffffffffffffffffffffffffffff166108fc6004549081150290604051600060405180830381858888f193505050501580156106bb573d6000803e3d6000fd5b505b5600a165627a7a72305820f9ed187519aa7422ba2e5ae49c15da0b26943e7b8c5696c8d65c1893d4f9ef530029",
  "source": "pragma solidity ^0.4.2;\r\n\r\ncontract PushStudy{\r\n\r\n    //Model a Candidate\r\n    struct Candidate{\r\n        uint id;\r\n        string name;\r\n        uint voteCount;\r\n    }\r\n\r\n    address public owner;\r\n\r\n    modifier restricted(){\r\n        if(msg.sender == owner)\r\n        _;\r\n    }\r\n\r\n    //Store Account that have voted\r\n    mapping(address => bool) public voters;\r\n    //Store Candidates\r\n    //Fetch Candidates\r\n    mapping(uint => Candidate) public candidates;\r\n\r\n    mapping(address => uint) public balances;\r\n    \r\n    uint fee = 1 ether;\r\n\r\n    //Store Candidate Counts\r\n    uint public candidatesCount;\r\n\r\n    function signup() public payable{\r\n        require(msg.sender.balance >= fee,\"余额不足\");\r\n        if(msg.sender.balance > fee){\r\n            msg.sender.transfer(fee);\r\n        }\r\n        \r\n    }\r\n\r\n    // voted event\r\n    event votedEvent (\r\n        uint indexed _candidateId\r\n    );\r\n\r\n    function PushStudy() public payable{\r\n        owner = msg.sender;\r\n    }\r\n\r\n    function addCandidate(string _name) private {\r\n        candidatesCount ++;\r\n        candidates[candidatesCount] = Candidate(candidatesCount,_name,0);\r\n    }\r\n\r\n    function vote(uint _candidateId) public {\r\n        //require that they haven't voted before\r\n        require(!voters[msg.sender],\"The voter has voted\");\r\n\r\n        //require a valid candidate\r\n        require(_candidateId > 0 && _candidateId <= candidatesCount,\"Invalid candidate\");\r\n        //record that voter has voted\r\n        voters[msg.sender] = true;\r\n\r\n        //update candidate vote count\r\n        candidates[_candidateId].voteCount ++;\r\n\r\n        //trigger voted event\r\n        votedEvent(_candidateId);\r\n    }\r\n\r\n\r\n}\r\n\r\n",
  "sourcePath": "D:\\BitKiller\\contracts\\PushStudy.sol",
  "compiler": {
    "name": "solc",
    "version": "0.4.24+commit.e67f0147.Emscripten.clang"
  },
  "schemaVersion": "2.0.1",
  "updatedAt": "2018-10-27T02:49:08.130Z"
}