{
  "contractName": "Review",
  "abi": [
    {
      "constant": true,
      "inputs": [],
      "name": "candidatesCount",
      "outputs": [
        {
          "name": "",
          "type": "uint256"
        }
      ],
      "payable": false,
      "stateMutability": "view",
      "type": "function"
    },
    {
      "constant": true,
      "inputs": [
        {
          "name": "",
          "type": "uint256"
        }
      ],
      "name": "candidates",
      "outputs": [
        {
          "name": "id",
          "type": "uint256"
        },
        {
          "name": "name",
          "type": "string"
        },
        {
          "name": "voteCount_yes",
          "type": "uint256"
        },
        {
          "name": "voteCount_no",
          "type": "uint256"
        }
      ],
      "payable": false,
      "stateMutability": "view",
      "type": "function"
    },
    {
      "constant": true,
      "inputs": [
        {
          "name": "",
          "type": "address"
        }
      ],
      "name": "voters",
      "outputs": [
        {
          "name": "",
          "type": "bool"
        }
      ],
      "payable": false,
      "stateMutability": "view",
      "type": "function"
    },
    {
      "inputs": [],
      "payable": false,
      "stateMutability": "nonpayable",
      "type": "constructor"
    },
    {
      "anonymous": false,
      "inputs": [
        {
          "indexed": true,
          "name": "_candidateId",
          "type": "uint256"
        }
      ],
      "name": "votedEvent",
      "type": "event"
    },
    {
      "constant": false,
      "inputs": [
        {
          "name": "_candidateId",
          "type": "uint256"
        }
      ],
      "name": "vote_yes",
      "outputs": [],
      "payable": false,
      "stateMutability": "nonpayable",
      "type": "function"
    },
    {
      "constant": false,
      "inputs": [
        {
          "name": "_candidateId",
          "type": "uint256"
        }
      ],
      "name": "vote_no",
      "outputs": [],
      "payable": false,
      "stateMutability": "nonpayable",
      "type": "function"
    }
  ],
  "bytecode": "0x608060405234801561001057600080fd5b5061005e6040805190810160405280600b81526020017f416e737765722048657265000000000000000000000000000000000000000000815250610063640100000000026401000000009004565b610196565b60026000815480929190600101919050555060806040519081016040528060025481526020018281526020016000815260200160008152506001600060025481526020019081526020016000206000820151816000015560208201518160010190805190602001906100d69291906100f1565b50604082015181600201556060820151816003015590505050565b828054600181600116156101000203166002900490600052602060002090601f016020900481019282601f1061013257805160ff1916838001178555610160565b82800160010185558215610160579182015b8281111561015f578251825591602001919060010190610144565b5b50905061016d9190610171565b5090565b61019391905b8082111561018f576000816000905550600101610177565b5090565b90565b61056b806101a56000396000f30060806040526004361061006d576000357c0100000000000000000000000000000000000000000000000000000000900463ffffffff1680632d35a8a2146100725780633477ee2e1461009d5780633526f5de14610158578063589db02a14610185578063a3ec138d146101b2575b600080fd5b34801561007e57600080fd5b5061008761020d565b6040518082815260200191505060405180910390f35b3480156100a957600080fd5b506100c860048036038101908080359060200190929190505050610213565b6040518085815260200180602001848152602001838152602001828103825285818151815260200191508051906020019080838360005b8381101561011a5780820151818401526020810190506100ff565b50505050905090810190601f1680156101475780820380516001836020036101000a031916815260200191505b509550505050505060405180910390f35b34801561016457600080fd5b50610183600480360381019080803590602001909291905050506102db565b005b34801561019157600080fd5b506101b0600480360381019080803590602001909291905050506103fd565b005b3480156101be57600080fd5b506101f3600480360381019080803573ffffffffffffffffffffffffffffffffffffffff16906020019092919050505061051f565b604051808215151515815260200191505060405180910390f35b60025481565b6001602052806000526040600020600091509050806000015490806001018054600181600116156101000203166002900480601f0160208091040260200160405190810160405280929190818152602001828054600181600116156101000203166002900480156102c55780601f1061029a576101008083540402835291602001916102c5565b820191906000526020600020905b8154815290600101906020018083116102a857829003601f168201915b5050505050908060020154908060030154905084565b6000803373ffffffffffffffffffffffffffffffffffffffff1673ffffffffffffffffffffffffffffffffffffffff16815260200190815260200160002060009054906101000a900460ff1615151561033357600080fd5b60008111801561034557506002548111155b151561035057600080fd5b60016000803373ffffffffffffffffffffffffffffffffffffffff1673ffffffffffffffffffffffffffffffffffffffff16815260200190815260200160002060006101000a81548160ff0219169083151502179055506001600082815260200190815260200160002060020160008154809291906001019190505550807ffff3c900d938d21d0990d786e819f29b8d05c1ef587b462b939609625b684b1660405160405180910390a250565b6000803373ffffffffffffffffffffffffffffffffffffffff1673ffffffffffffffffffffffffffffffffffffffff16815260200190815260200160002060009054906101000a900460ff1615151561045557600080fd5b60008111801561046757506002548111155b151561047257600080fd5b60016000803373ffffffffffffffffffffffffffffffffffffffff1673ffffffffffffffffffffffffffffffffffffffff16815260200190815260200160002060006101000a81548160ff0219169083151502179055506001600082815260200190815260200160002060030160008154809291906001019190505550807ffff3c900d938d21d0990d786e819f29b8d05c1ef587b462b939609625b684b1660405160405180910390a250565b60006020528060005260406000206000915054906101000a900460ff16815600a165627a7a723058203260a3d2dc7f2757978852f7093e6c4344fdc55d8bb2bb2ec88946fc8c4558d60029",
  "source": "pragma solidity ^0.4.2;\r\n\r\ncontract Review {\r\n    // Model a Candidate\r\n    struct Candidate {\r\n        uint id;\r\n        string name;\r\n        uint voteCount_yes;\r\n        uint voteCount_no;\r\n    }\r\n\r\n    // Store accounts that have voted\r\n    mapping(address => bool) public voters;\r\n    // Store Candidates\r\n    // Fetch Candidate\r\n    mapping(uint => Candidate) public candidates;\r\n    // Store Candidates Count\r\n    uint public candidatesCount;\r\n\r\n    // voted event\r\n    event votedEvent (\r\n        uint indexed _candidateId\r\n    );\r\n\r\n    function Review () public {\r\n        addCandidate(\"Answer Here\");\r\n    }\r\n\r\n    function addCandidate (string _name) private {\r\n        candidatesCount ++;\r\n        candidates[candidatesCount] = Candidate(candidatesCount, _name, 0,0);\r\n    }\r\n\r\n    function vote_yes (uint _candidateId) public {\r\n        // require that they haven't voted before\r\n        require(!voters[msg.sender]);\r\n\r\n        // require a valid candidate\r\n        require(_candidateId > 0 && _candidateId <= candidatesCount);\r\n\r\n        // record that voter has voted\r\n        voters[msg.sender] = true;\r\n\r\n        // update candidate vote Count\r\n        candidates[_candidateId].voteCount_yes ++;\r\n\r\n        // trigger voted event\r\n        votedEvent(_candidateId);\r\n    }\r\n\r\n    function vote_no (uint _candidateId) public {\r\n        // require that they haven't voted before\r\n        require(!voters[msg.sender]);\r\n\r\n        // require a valid candidate\r\n        require(_candidateId > 0 && _candidateId <= candidatesCount);\r\n\r\n        // record that voter has voted\r\n        voters[msg.sender] = true;\r\n\r\n        // update candidate vote Count\r\n        candidates[_candidateId].voteCount_no ++;\r\n\r\n        // trigger voted event\r\n        votedEvent(_candidateId);\r\n    }\r\n\r\n}",
  "sourcePath": "D:\\BitKiller\\contracts\\Review.sol",
  "compiler": {
    "name": "solc",
    "version": "0.4.24+commit.e67f0147.Emscripten.clang"
  },
  "schemaVersion": "2.0.1",
  "updatedAt": "2018-10-27T12:48:21.732Z"
}